{
  "contractName": "ticketingSystem",
  "abi": [
    {
      "constant": true,
      "inputs": [
        {
          "name": "",
          "type": "uint256"
        }
      ],
      "name": "artistsRegister",
      "outputs": [
        {
          "name": "name",
          "type": "bytes32"
        },
        {
          "name": "category",
          "type": "uint256"
        },
        {
          "name": "totalSoldTickets",
          "type": "uint256"
        },
        {
          "name": "owner",
          "type": "address"
        },
        {
          "name": "artistID",
          "type": "uint256"
        }
      ],
      "payable": false,
      "stateMutability": "view",
      "type": "function"
    },
    {
      "constant": true,
      "inputs": [
        {
          "name": "",
          "type": "uint256"
        }
      ],
      "name": "venuesRegister",
      "outputs": [
        {
          "name": "name",
          "type": "bytes32"
        },
        {
          "name": "capacity",
          "type": "uint256"
        },
        {
          "name": "comission",
          "type": "uint256"
        },
        {
          "name": "owner",
          "type": "address"
        },
        {
          "name": "Venueid",
          "type": "uint256"
        }
      ],
      "payable": false,
      "stateMutability": "view",
      "type": "function"
    },
    {
      "inputs": [],
      "payable": false,
      "stateMutability": "nonpayable",
      "type": "constructor"
    },
    {
      "anonymous": false,
      "inputs": [
        {
          "indexed": false,
          "name": "objectNumber",
          "type": "uint256"
        }
      ],
      "name": "createdAnObject",
      "type": "event"
    },
    {
      "constant": false,
      "inputs": [
        {
          "name": "_name",
          "type": "bytes32"
        },
        {
          "name": "_category",
          "type": "uint256"
        }
      ],
      "name": "createArtist",
      "outputs": [],
      "payable": false,
      "stateMutability": "nonpayable",
      "type": "function"
    },
    {
      "constant": false,
      "inputs": [
        {
          "name": "_id",
          "type": "uint256"
        },
        {
          "name": "_name",
          "type": "bytes32"
        },
        {
          "name": "_category",
          "type": "uint256"
        },
        {
          "name": "_newOwner",
          "type": "address"
        }
      ],
      "name": "modifyArtist",
      "outputs": [],
      "payable": false,
      "stateMutability": "nonpayable",
      "type": "function"
    },
    {
      "constant": false,
      "inputs": [
        {
          "name": "_name",
          "type": "bytes32"
        },
        {
          "name": "_capacity",
          "type": "uint256"
        },
        {
          "name": "_comission",
          "type": "uint256"
        }
      ],
      "name": "createVenue",
      "outputs": [],
      "payable": false,
      "stateMutability": "nonpayable",
      "type": "function"
    },
    {
      "constant": false,
      "inputs": [
        {
          "name": "_id",
          "type": "uint256"
        },
        {
          "name": "_name",
          "type": "bytes32"
        },
        {
          "name": "_capacity",
          "type": "uint256"
        },
        {
          "name": "_newOwner",
          "type": "address"
        }
      ],
      "name": "modifyVenue",
      "outputs": [],
      "payable": false,
      "stateMutability": "nonpayable",
      "type": "function"
    }
  ],
  "bytecode": "0x608060405234801561001057600080fd5b506000600181905550336000806101000a81548173ffffffffffffffffffffffffffffffffffffffff021916908373ffffffffffffffffffffffffffffffffffffffff160217905550610847806100686000396000f3fe608060405260043610610078576000357c0100000000000000000000000000000000000000000000000000000000900463ffffffff16806359cb327a1461007d57806365bbe532146100cc57806390b3b0141461013b57806397af2930146101aa578063a88ae81514610241578063e62e4f8d146102d8575b600080fd5b34801561008957600080fd5b506100ca600480360360608110156100a057600080fd5b8101908080359060200190929190803590602001909291908035906020019092919050505061031d565b005b3480156100d857600080fd5b50610139600480360360808110156100ef57600080fd5b81019080803590602001909291908035906020019092919080359060200190929190803573ffffffffffffffffffffffffffffffffffffffff169060200190929190505050610452565b005b34801561014757600080fd5b506101a86004803603608081101561015e57600080fd5b81019080803590602001909291908035906020019092919080359060200190929190803573ffffffffffffffffffffffffffffffffffffffff169060200190929190505050610555565b005b3480156101b657600080fd5b506101e3600480360360208110156101cd57600080fd5b8101908080359060200190929190505050610658565b604051808681526020018581526020018481526020018373ffffffffffffffffffffffffffffffffffffffff1673ffffffffffffffffffffffffffffffffffffffff1681526020018281526020019550505050505060405180910390f35b34801561024d57600080fd5b5061027a6004803603602081101561026457600080fd5b81019080803590602001909291905050506106ae565b604051808681526020018581526020018481526020018373ffffffffffffffffffffffffffffffffffffffff1673ffffffffffffffffffffffffffffffffffffffff1681526020018281526020019550505050505060405180910390f35b3480156102e457600080fd5b5061031b600480360360408110156102fb57600080fd5b810190808035906020019092919080359060200190929190505050610704565b005b6000811015801561032f575060648111155b151561033a57600080fd5b60026000815480929190600101919050555060a060405190810160405280848152602001838152602001600081526020013373ffffffffffffffffffffffffffffffffffffffff16815260200160025481525060046000600254815260200190815260200160002060008201518160000155602082015181600101556040820151816002015560608201518160030160006101000a81548173ffffffffffffffffffffffffffffffffffffffff021916908373ffffffffffffffffffffffffffffffffffffffff160217905550608082015181600401559050507f7cae7a3c7c00bad87d1229fed1113a236da28d46017a7a02cd43fb830fe389a86002546040518082815260200191505060405180910390a1505050565b833373ffffffffffffffffffffffffffffffffffffffff166004600083815260200190815260200160002060030160009054906101000a900473ffffffffffffffffffffffffffffffffffffffff1673ffffffffffffffffffffffffffffffffffffffff161415156104c357600080fd5b836004600087815260200190815260200160002060000181905550826004600087815260200190815260200160002060010181905550816004600087815260200190815260200160002060030160006101000a81548173ffffffffffffffffffffffffffffffffffffffff021916908373ffffffffffffffffffffffffffffffffffffffff1602179055505050505050565b833373ffffffffffffffffffffffffffffffffffffffff166003600083815260200190815260200160002060030160009054906101000a900473ffffffffffffffffffffffffffffffffffffffff1673ffffffffffffffffffffffffffffffffffffffff161415156105c657600080fd5b836003600087815260200190815260200160002060000181905550826003600087815260200190815260200160002060010181905550816003600087815260200190815260200160002060030160006101000a81548173ffffffffffffffffffffffffffffffffffffffff021916908373ffffffffffffffffffffffffffffffffffffffff1602179055505050505050565b60036020528060005260406000206000915090508060000154908060010154908060020154908060030160009054906101000a900473ffffffffffffffffffffffffffffffffffffffff16908060040154905085565b60046020528060005260406000206000915090508060000154908060010154908060020154908060030160009054906101000a900473ffffffffffffffffffffffffffffffffffffffff16908060040154905085565b60016000815480929190600101919050555060a060405190810160405280838152602001828152602001600081526020013373ffffffffffffffffffffffffffffffffffffffff16815260200160015481525060036000600154815260200190815260200160002060008201518160000155602082015181600101556040820151816002015560608201518160030160006101000a81548173ffffffffffffffffffffffffffffffffffffffff021916908373ffffffffffffffffffffffffffffffffffffffff160217905550608082015181600401559050507f7cae7a3c7c00bad87d1229fed1113a236da28d46017a7a02cd43fb830fe389a86001546040518082815260200191505060405180910390a1505056fea165627a7a72305820c5a8d307a55a6c50eb90800bc63966f3533e917662f36d54dec2dc12057807c00029",
  "source": "pragma solidity >= 0.4.24; \r\n\r\ncontract ticketingSystem \r\n{ \r\n    address owner;\r\n    uint artistCount;\r\n    uint venueCount;\r\n\r\n    event createdAnObject(uint objectNumber);\r\n\r\n    struct Artist\r\n    {\r\n        bytes32 name;\r\n        uint category;\r\n        uint totalSoldTickets;\r\n\r\n        address owner;\r\n\r\n        uint artistID;\r\n    }\r\n\r\n    struct Venue\r\n    {\r\n        bytes32 name;\r\n        uint capacity;\r\n        uint comission;\r\n\r\n        address owner;\r\n\r\n        uint Venueid;\r\n    }\r\n\r\n    struct Ticket\r\n    {\r\n        bytes32 concertDate;\r\n\r\n        bool validatedByArtist;\r\n        bool validatedByVenue;\r\n\r\n    }\r\n\r\n    mapping (uint => Artist) public artistsRegister;\r\n    mapping (uint => Venue) public venuesRegister;\r\n\r\n    modifier onlyArtistOwner(uint _artistId) {\r\n        require(artistsRegister[_artistId].owner == msg.sender);\r\n        _;\r\n    }\r\n\r\n    modifier onlyVenueOwner(uint _artistId) {\r\n        require(venuesRegister[_artistId].owner == msg.sender);\r\n        _;\r\n    }\r\n\r\n    constructor() public {\r\n        artistCount = 0;\r\n        owner = msg.sender;\r\n    }\r\n\r\n    function createArtist(bytes32 _name, uint _category) public \r\n    {\r\n        artistCount++;\r\n        artistsRegister[artistCount] = Artist(_name, _category, 0, msg.sender, artistCount);\r\n        emit createdAnObject(artistCount);\r\n    }\r\n\r\n    function modifyArtist(uint _id, bytes32 _name, uint _category, address _newOwner) public onlyArtistOwner(_id)\r\n    {\r\n        artistsRegister[_id].name = _name;\r\n        artistsRegister[_id].category = _category;\r\n        artistsRegister[_id].owner = _newOwner;\r\n    }\r\n\r\n    function createVenue(bytes32 _name, uint _capacity, uint _comission) public \r\n    {\r\n        require(_comission >= 0 && _comission <= 100);\r\n        venueCount++;\r\n        venuesRegister[venueCount] = Venue(_name, _capacity, 0, msg.sender, venueCount);\r\n        emit createdAnObject(venueCount);\r\n    }\r\n\r\n    function modifyVenue(uint _id, bytes32 _name, uint _capacity, address _newOwner) public onlyVenueOwner(_id)\r\n    {\r\n        venuesRegister[_id].name = _name;\r\n        venuesRegister[_id].capacity = _capacity;\r\n        venuesRegister[_id].owner = _newOwner;\r\n    }\r\n\r\n    \r\n}\r\n",
  "sourcePath": "C:/Users/Administrateur/Documents/Ticketing/contracts/ticketingSystem.sol",
  "compiler": {
    "name": "solc",
    "version": "0.5.0+commit.1d4f565a.Emscripten.clang"
  },
  "schemaVersion": "3.0.5",
  "updatedAt": "2019-03-22T15:02:40.435Z",
  "devdoc": {
    "methods": {}
  },
  "userdoc": {
    "methods": {}
  }
}